:1008EA001209221208FD7F201209221208FD7F2018
:0308FA00120922BE
:1008FD00E4FFFEE4FDFC0DBD00010CED640A4C703F
:0C090D00F50FBF00010EBE0BEABFB8E7FB
:0109190022BB
:070935001208FD7F307E0077
:10093C008FA0C2B6C2B5C2B71208FDD2B71208FD5D
:03094C00C2B7220D
:08091A001209221208FD7F2AD8
:100922008FA0C2B6D2B5C2B71208FDD2B71208FD67
:03093200C2B72227
:1008AC001209351209351209351208FD7F387E0000
:1008BC0012093C1208FD7F017E0012093C1208FD52
:1008CC007F0F7E0012093C1208FD7F0C7E0012097E
:0E08DC003C1208FD7F807E0012093C0208FDE0
:100800001208AC7F201209227F2A12091A1208FD51
:100810007F4C1209221208FD7F791209221208FD6D
:100820007F6D1209221208FD7F621209221208FD53
:100830007F451209221208FD7F641209221208FD69
:100840007F671209221208FD7F4512091A1208FD5E
:100850007F2A1208EA7FC07E0012093C1208FD7F41
:10086000201208EA7F521209221208FD7F4F120956
:10087000221208FD7F421209221208FD7F4F120941
:10088000221208FD7F541209221208FD7F49120925
:10089000221208FD7F431209221208FD7F5312081D
:0C08A000EA1208F87F201209220208FD6D
:0300000002094FA3
:0C094F00787FE4F6D8FD758107020800EF
:00000001FF
